:020000040800F2
:10000000F0FF012049A305088DE60008457C04089F
:10001000C1A30508C1A30508C1A30508000000008D
:1000200000000000000000000000000089E6000859
:1000300085E600080000000081E60008B13F0408E2
:10004000C1A30508C1A30508C1A30508C1A30508EC
:10005000C1A30508C1A3050835920408FD91040851
:10006000C59104088D91040855910408198A050862
:10007000098A0508F9890508E9890508D589050867
:10008000C1890508AD890508C1A305080000000065
:100090000000000000000000000000001D910408A6
:1000A000112604086126040801260408892604088C
:1000B000512604084126040831260408C1A3050876
:1000C000C1A30508C1A30508C1A30508C1A305086C
:1000D000C1A30508D1400408154004080000000031
:1000E000E5900408C1A30508450D010800000000C3
:1000F00000000000000000000000000099890508D1
:1001000000000000C1A3050821260408C1A30508BA
:1001100000000000000000000000000000000000DF
:1001200085890508718905085D89050849890508DB
:1001300035890508000000000000000000000000F4
:1001400000000000000000000000000001FD0008A9
:10015000218905080D890508F9880508C1A3050846
:10016000C1A30508C1A305080000000000000000AD
:10017000000000000000000000000000000000007F
:1001800000000000C1A305080000000000000000FE
:08019000C1A30508C1A3050885
:08019800E89E050001000000D3
:1001A0000B3001001A00000050360020F4700020CF
:1001B00000000000E4C50608F07000201F50010098
:1001C0002400000010360020147100200000000000
:1001D00000C606081071002005020100040000009E
:1001E000547000203C7100200000000024C6060866
:1001F000387100201302010004000000F42A0020DE
:10020000447100200000000028C60608407100204C
:10021000031101000A000000403500204C7100204D
:1002200000000000698E0008487100200D100100D8
:1002300034000000946200205C7100200000000087
:100240001FB70308587100200902010001000000D7
:10025000B46F002094710020000000002CC6060836
:1002600090710020F9010100040000005462002098
:100270009C710020000000009D110408987100206E
:10028000FB01010001000000685D0020A471002056
:100290000000000035310508A0710020FC010100BC
:1002A00009000000345C0020AC7100200000000058
:1002B00045310508A8710020F70101000600000083
:1002C000285C0020BC710020000000002EC606083B
:1002D000B8710020160215003F00000044330020D2
:1002E000C871002000000000E5310508C47100203D
:1002F0003400010010000000585B00200C72002048
:100300000000000079430208087200201102010079
:1003100008000000305B0020207200200000000078
:1003200034C606081C7200201212010004000000EE
:10033000285B00202C720020000000003CC606084C
:10034000287200201830010038000000F05A002008
:100350003472002000000000553205083072002081
:10036000000201000B000000745700207072002092
:1003700000000000512805086C720020FD010100FA
:10038000210000005C51002080720020000000006D
:10039000F71004087C7200202A0201000800000007
:1003A00068430020A87200200000000040C6060834
:1003B000A472002020520100080000001043002019
:1003C000B47200200000000069330208B0720020FF
:1003D00006100100240000000C320020C072002032
:1003E0000000000061310508BC7200200C02010011
:1003F00004000000C83B0020E8720020000000005C
:1004000009280508E4720020FE0101001400000024
:1004100020670020F0720020000000005928050825
:10042000EC7200201B2001000C000000CC8C00208E
:10043000C09F00200000000021960108BC9F002002
:1004400021020100F0000000FC8A0020D09F002063
:100450000000000005350108CC9F00203710010086
:1004600030000000D89C0020C4A000200000000044
:1004700048C60608C0A000200E02010002000000CD
:1004800044910020F8A000200000000078C6060873
:10049000F4A0002016100100060000003C9100208E
:1004A00000A10020000000007AC60608FCA0002081
:1004B0002F10010022000000989F00200CA10020B6
:1004C0000000000080C6060808A1002023220100C9
:1004D000100000009490002034A1002000000000D3
:1004E000A4C6060830A100201E000100090000007B
:1004F0007C90002048A1002000000000B4C606083F
:1005000044A10020052001000C000000DC90002028
:1005100058A1002000000000C0C6060854A1002019
:10052000FD0701007C000000C089002068A10020B8
:10053000000000006114010864A10020F591010091
:100540006C000000808A0020E8A10020000000006C
:10055000E5330108E4A10020232001001000000081
:100560003A9C002058A2002000000000BD110208A3
:1005700054A20020123001001000000064900020FE
:100580006CA2002000000000CCC6060868A2002073
:10059000140001000500000088C60020B0C600203D
:1005A00000000000DCC60608ACC6002001200100E7
:1005B0000C00000018BA0020BCC60020000000009B
:1005C000E2C60608B8C600200C400600E4000000A1
:1005D0003CB80020CCC60020000000001D5F0308CE
:1005E000C8C600200A90010024000000F8B70020CF
:1005F000B4C700200000000075110208B0C7002039
:100600000E300300BC01000034B60020DCC700201F
:100610000000000081330208D8C700201310010039
:100620000400000030C400209CC90020000000002D
:10063000F0C6060898C9002001010100040000006E
:100640006CB50020A4C900200000000000000000DC
:10065000A0C90020000101000400000064B50020D2
:10066000ACC9002000000000F4C60608A8C900209C
:10067000020101000300000060B50020B4C90020A1
:10068000000000005D5F0308B0C9002022020100E5
:100690001C01000018C20020BCC90020000000009E
:1006A000C9330508B8C90020010201000B00000091
:1006B00078B50020DCCA00200000000041280508B1
:1006C000D8CA00200202010003000000BCBA0020CA
:1006D000ECCA00200000000000000000E8CA002072
:1006E0001B020100100000006CBA0020F4CA0020B8
:1006F00000000000E9280508F0CA002015001000DD
:100700007000000040D7002044D900200000000005
:100710000000000040D900202A000800600000000E
:1007200050D60020B8D90020000000004133020854
:10073000B4D900202C000400100000002CDA0020A6
:100740001CDA0020000000000931020818DA00203D
:10075000292014007800000040D3002040DA002057
:1007600000000000000000003CDA00201A00010038
:100770000E00000098D20020BCDA0020000000002B
:10078000F8C60608B8DA00202B001200240000008A
:1007900074D20020D0DA002000000000DD30020812
:1007A000CCDA0020190201001000000060D2002005
:1007B000F8DA00200000000021280508F4DA002003
:1007C000F62101000C00000044D100200CDB0020C9
:1007D0000000000008C7060808DB00201C02020019
:1007E0001C0000005CD1002060DB00200000000045
:1007F0003D3305085CDB0020F831010006000000F5
:10080000C4DD0020F4E000200000000014C706084A
:10081000F0E000200300010001000000D4DD002012
:1008200000E100200000000000000000FCE00020CB
:100830001010010002000000C0E0002008E10020CC
:10084000000000001AC7060804E10020190001009A
:100850000500000020DD002010E100200000000065
:100860001CC706080CE1002029020100400000001E
:1008700050E300200CE800200000000022C706081A
:1008800008E800202C0201000400000004E500201C
:1008900050E800200000000062C706084CE8002075
:1008A0000A02010014000000B0E3002078E80020F4
:1008B00000000000C568030874E8002025201E0021
:1008C0002C01000024E5002090E80020000000003A
:1008D000000000008CE80020031201003D00000031
:1008E000BCE70020C0E900200000000066C7060841
:1008F000BCE90020020001000C00000034EA0020E6
:10090000CCEA00200000000000000000C8EA00203F
:100910000400080080000000E8F2002068F30020D6
:100920000000000000000000ECF4002008120300AA
:100930000F000000D8F20020F4F4002000000000B6
:1009400081280508F0F400202802040004000000BB
:1009500044F2002008F5002000000000E52805080A
:1009600004F50020270204000400000040F20020EB
:1009700010F5002000000000D92805080CF5002023
:100980001F020800100000007CEF002018F5002076
:1009900000000000E927050814F500201A020100F4
:1009A0003C00000020EB00202CF50020000000009F
:1009B000B132050828F500203820010003000000AE
:1009C000E4EA00206CF5002000000000A4C706083F
:1009D00068F50020270001000400000094F50020C5
:1009E000F8F5002000000000A8C70608F4F5002074
:1009F0001002010001000000980D0120940D01205B
:100A000000000000ACC70608900D01202B02010079
:100A10000C00000004F70020AC0D012000000000D5
:100A2000AEC70608A80D01201D0202000600000046
:100A3000880D0120BC0D0120000000000000000016
:040A4000B80D0120CC
:100A44000403090412010002EF0201408304563238
:100A54000002010203010000120100020202004030
:100A640083044057000201020301000009026400EC
:100A7400030100C032090400000103000000092141
:100A8400110100012236000705830309000A080B3F
:100A94000102020201000904010001020201000531
:100AA4002400100105240100020424020205240686
:100AB4000102070582030800FF09040200020A007C
:100AC4000000070501024000000705810240000004
:100AD40009024300020100C03209040000010202BD
:100AE4000100052400100105240100010424020270
:100AF4000524060001070582030800FF090401001C
:100B0400020A0000000705010240000007058102F7
:100B140040000000FF000000140000FF000000007F
:100B240000000000AA550701000001AA55050100B4
:100B3400002D202D2D202D2D2D2D202D2D2D2D0062
:100B440000000000000000000000000000000000A1
:100B540008000000B0C60508FF1FFF1F7D0000004D
:100B640001840008FD830008F9830008ED83000870
:100B7400E9830008F5830008F18300087584000800
:100B84006984000841840008558400082D84000805
:100B94001984000805840008010000000000803F5B
:100BA40005010905A101A100050109300931093236
:100BB400093309350934093609371581257F750844
:100BC40095088102050919012908150025019508D0
:100BD40075018102C0C0000009022200010100E089
:100BE400320904000001030102000921110100017E
:100BF4002236000705830309000A00000060024052
:100C0400106002400000000000000000000000002E
:100C1400000B0000000000000000000000000000C5
:100C24000060024028600240010000000000000053
:100C340000000000060C000000000000000000009E
:100C4400000000000060024040600240020000001A
:100C54000000000000000000100D00000000000073
:100C640000000000000000000060024058600240E4
:100C7400030000000000000000000000160E000049
:100C840000000000000000000000000000600240BE
:100C9400706002400400000000000000000000003A
:100CA400200F000000000000000000000000000011
:100CB400006002408860024005000000000000005F
:100CC40000000000261000000000000000000000EA
:100CD4000000000000600240A06002400600000026
:100CE40000000000000000003011000000000000BF
:100CF400000000000000000000600240B8600240F4
:100D0400070000000000000000000000362F000073
:100D14000000000000000000000000000064024029
:100D24001064024000000000000000000000000009
:100D34000038000000000000000000000000000077
:100D4400006402402864024001000000000000002A
:100D54000000000006390000000000000000000050
:100D640000000000006402404064024002000000F1
:100D74000000000000000000103A00000000000025
:100D840000000000000000000064024058640240BB
:100D9400030000000000000000000000163B0000FB
:100DA4000000000000000000000000000064024099
:100DB4007064024004000000000000000000000015
:100DC400203C0000000000000000000000000000C3
:100DD4000064024088640240050000000000000036
:100DE4000000000026440000000000000000000095
:100DF4000000000000640240A064024006000000FD
:100E04000000000000000000304500000000000069
:100E1400000000000000000000640240B8640240CA
:100E2400070000000000000000000000364600003B
:100E340000000000000000000000000000000000AE
:100E440001020304010203040607080939E8000843
:100E5400F1EE000869EA000819850008F98A00081B
:100E64002985000845850008F1840008E18400080C
:100E74000000000000000000AA550B010000AA5564
:100E840005010000AA550902000000AA5503009FAD
:100E940001000000C0120000010000000000010079
:100EA400FFFFFFFF7EFF0000FFFFFFFFFF000000CA
:100EB400FFFFFFFFA4A20020000000007CA200208E
:100EC400000000000101FF01E00101007D8B010829
:100ED4000000000000000000D0CD050808FF00005D
:100EE400000000000000000000000000C4E4050849
:100EF4000000000000000000000000007CE5050880
:100F040000000000000000000000000028E50508C3
:100F14000000000000000000A9A6010856BD002042
:100F24000101000061E00108000000000000000071
:100F340044E60508C5E301080000000000000000C5
:100F4400FCE505082D202D2D202D2D2D2D202D2DBA
:100F54002D00000000000000000000000000000060
:100F640000000000FFFFFFFFC1B101080000000006
:100F74000000000054E4050801000000FA0000002D
:100F8400010000000100000082B900200000F4010B
:100F94000100000080B900200000F40101000000FD
:100FA4007EB900200000F401010000007CB900209B
:100FB4000000F401010000007AB900200000F401EF
:100FC4000100000078B900200000F40101000000D5
:100FD40076B900200000F4010100000039940108F2
:100FE400FD930108000000003CCF050866B900200D
:100FF4000532010074B900206400F401010000000E
:1010040072B900206400C4090100000064B9002022
:10101400E803D0070100000062B90020E803D0070C
:101024000100000060B90020E803D00701000000BF
:101034005EB900201E00B80B010000006CB900204E
:1010440005000F00010000006EB9002003000A0033
:10105400010000005CB900201E00F4010100000042
:1010640070B9002002000000C8CF05085AB900205A
:10107400140064000100000068B900203200E80395
:101084000100000058B900200000C8000100000061
:1010940039B8002000C8010038B800200050010011
:1010A40037B80020005A010035B8002002000000C3
:1010B40030CF0508404406084844060854BD0020C3
:1010C4000100C4090000000052BD00200100C40951
:1010D4000000000050BD00200100C4090000000011
:1010E4004EBD00200100C409000000004ABD0020DC
:1010F4000100C409000000004CBD00200100C40927
:101104000000000048BD00200100C40900000000E8
:1011140046BD00200100C4090000000099B500206C
:1011240000C8010098B5002000C8010096B5002051
:101134000000FFFF0A00000094B500200100C80071
:101144000100000092B5002032003075320000002A
:1011540090B500207EFF1400050000008EB500202D
:1011640005002C01050000008CB50020055A05007F
:1011740089B5002000FF01008BB5002002000000AB
:101184000C08002087B5002003000000E4C7050810
:1011940088B5002000FF01008AB50020020000008D
:1011A4000C08002086B5002003000000E4C70508F1
:1011B400D8B40020FF7F0100D4B400200000000058
:1011C400FFFFFFFF01000000D0B40020000000007A
:1011D400FFFFFFFF01000000CCB40020000000006E
:1011E400FFFFFFFF010000008D9301081D9301081C
:1011F4000000000018D0050828BA0020EE02CA0832
:101204000100000026BA002000C8010064000000AC
:1012140025BA002002C801006400000024BA00209E
:1012240002000000D4CF050872B500200000803E03
:101234000500000070B5002080C1803E050000005C
:101244006AB500200083007D0500000068B5002019
:1012540080C1803E0500000063B5002000FF01004E
:101264005CB500206400F401010000005AB50020C0
:101274006400F4010100000058B500206400F4018A
:101284000100000056B500200400000024D1050828
:1012940055B500200200000038D1050825B600200D
:1012A4000D00000044D1050822B6002000640100AE
:1012B40020B60020320010270A0000001EB60020CD
:1012C4000D00000044D105081DB600200D000000EB
:1012D40044D105081CB6002002000000E0CF050838
:1012E4002DBA0020460000007CD105082BBA00204E
:1012F4000300000098D205082CBA00200400000066
:10130400ECCF050827B6002003000000A8D205088A
:1013140026B6002003000000A8D2050826B8002045
:10132400000A010024B800200000E80301000000C6
:1013340022B800200000E8030100000020B80020CB
:10134400000A01001EB800200000E80301000000AC
:101354001CB800200000E80301000000F0B70020E2
:10136400C800E80301000000F6B700203C00FA00C2
:1013740001000000F4B700200100E80301000000B0
:10138400F2B700200005010034B80020020000007C
:1013940000D0050832B800200000F401010000006C
:1013A40030B800200000F401010000002EB8002035
:1013B4000000F401010000002CB800200000F4013A
:1013C400010000002AB800200000E803010000002A
:1013D40028B800200000E8030100000046B90020FE
:1013E400006401000A00000045B900200064010007
:1013F4000A00000033B900201964010032B900204A
:10140400020000000CD0050830B90020E803D00722
:101414000A0000002EB90020006401000A00000048
:1014240023B900200064010022B9002000640100F7
:101434002AB90020006401000A00000029B9002034
:10144400006401000A00000028B9002000640100C3
:101454000A0000002DB9002000FF01000A0000006E
:101464002CB9002000FF01000A0000002BB9002065
:1014740000FF01000A00000027B9002001FF01005D
:101484000A00000026B9002001FF01000A00000044
:1014940025B9002001FF01000A00000030B6002039
:1014A4000000F401010000002EB600200000E80353
:1014B400010000002CB600200000E8030100000039
:1014C4002AB600200000E8030100000028B600202E
:1014D4000000E80301000000A7BD00200096010001
:1014E4009EBD002000C801009DBD002000640100D5
:1014F4009CBD0020006401009BBD0020006401002D
:101504009ABD00200064010099BD0020FF0801007D
:1015140098BD0020016401000D920108D1910108D9
:1015240000000000B8D20508A1BD0020013201006E
:10153400A0BD00200100000028D305089FBD0020A5
:101544000400000030D3050897BD00200096010078
:1015540096BD00200064010094BD00201400E8033F
:101564000100000092BD0020000030750A00000058
:1015740090BD002000C801008FBD002000C80100FC
:101584008EBD002000C80100A4BD0020003201006F
:10159400A6BD002000140100A5BD0020004B0100E1
:1015A400A3BD00200400000044D30508A2BD002010
:1015B400006401000A00000052B900200AC80500B6
:1015C4000A00000051B900200100000054D30508AE
:1015D40054B900200AC805000A00000053B90020CD
:1015E4000100000054D3050849B9002000C80500D3
:1015F4000A00000050B9002000C805000A000000DD
:101604004AB9002000C805000A0000004BB90020B8
:1016140000C805000A0000004EB9002000C80500FB
:101624000A0000004FB9002000C805000A000000AD
:101634004DB9002000C805000A0000004CB9002084
:1016440000C805000A00000048B90020020000009C
:101654005CD30508B6BD00200000D00701000000DF
:10166400B0BD002000C80100AFBD002000C80100CB
:10167400AEBD002000C80100B4BD00200000D007AA
:1016840001000000ADBD002000C80100ACBD002079
:1016940000C80100ABBD002000C80100B2BD00209D
:1016A4000000D00701000000AABD002000C801000E
:1016B400A9BD002000C80100A8BD002000C8010089
:1016C400585506080000000000008FC6002064552D
:1016D4000608070800000000100E00206C550608DC
:1016E400070800000000080E0020745506080708CB
:1016F40000000000000E00207C55060808080000C9
:101704000000F40D0020A03F0608070800000000B8
:10171400EC0D0020A83F0608070800000000E40DB7
:101724000020B03F0608070800000000DC0D002080
:101734005C400608080800000000D00D0020845515
:101744000608071000000000C80D00208C5506088C
:10175400071000000000C00D002094550608071073
:1017640000000000B80D00209C5506080810000079
:101774000000AC0D0020A843060801000000000092
:101784000000000000000000100000000000000045
:1017940000000000A18F0108858F01089DB1010898
:1017A40068D3050819B60020005A010018B60020B5
:1017B40000C8010016B60020E803D00701000000AD
:1017C4000000000000000000E9A6010804D4050898
:1017D40085B50020030000004CD4050884B5002022
:1017E4000003010083B5002000030100C18E01083D
:1017F400758E0108000000005CD40508358E0108D0
:10180400ED8D010800000000F8D405080D8F0108D3
:1018140081B101080000000078D5050874B50020E6
:1018240001030100418B0108198B0108000000002D
:10183400ECD80508F9940108CD94010800000000D3
:101844006CD905085D8D0108058D010800000000B4
:10185400DCD90508B18F0108C9EB010800000000BC
:1018640094DA050895A701082595010800000000F1
:101874003CDB0508019001080000000000000000A6
:10188400C8DB0508E5900108859001080000000008
:101894002CDC05088D910108499101080000000025
:1018A400E4DC0508DD0F020849920108000000008D
:1018B40070DD050856B900200106010049900108B1
:1018C400159001080000000088DE0508F90E0208E2
:1018D40049B3010800000000F8DE05087992010808
:1018E40069B401080000000074E005082110020832
:1018F40029B4010800000000180E002055B900208A
:1019040001030100558F0108258F01080000000024
:1019140080E1050821B1010800000000000000007A
:10192400E4E10508B58D010869B101080000000073
:1019340080E2050800000000000000000000000034
:101944001CE30508F5920108B5B501080000000084
:101954009CE30508000000000000000000000000F7
:10196400C4E50508D43500209CFF2C0100000000CC
:10197400C8C30020E0150C1700000000CAC30020F3
:1019840002000000FCE8050850B5002088136F171A
:101994000100000052B5002088136F1700000000FA
:1019A40074350020000000000000000072350020A3
:1019B400000000000000000070350020000000005E
:1019C400000000006E350020000000000000000050
:1019D4006C35002000000000000000006A35002083
:1019E4000000000000000000EC05002000000000E2
:1019F40000000000D9B4002003000000E0E6050860
:101A040048B5002088136F17010000004A700020B9
:101A140088136F1700000000458C010800000000C7
:101A240000000000F0E6050811BD002001000000E0
:101A340044E705084C7000200100000050E7050849
:101A4400427000200200000058E705080000000072
:101A5400000000000000000064E705082D8C010868
:101A6400000000000000000000E80508000000007D
:101A7400000000000000000054E805080000000019
:101A84000000000000000000C4E8050854B5002070
:101A940002000000FCE8050846700020E0150C1761
:101AA4000000000080CC0020D4CC002001F11F3FB6
:101AB400D60101010001010100FF00003D2F0208D1
:101AC40004730020FFFFFFFF0000803F00000000C0
:101AD4000000000000000000000000000000000002
:101AE40000000000000000000000000000000000F2
:101AF4000000803F00000000000000000000000023
:101B04000000803F00000000000000000000000012
:101B14000000803F00000000000000000000000002
:101B2400010000000000FA430000FA430000803F77
:101B340095D703080000000000000000000000002A
:101B440060FECD000000000064E8002008000000F2
:101B54000000000054E8002008000000FFFFFFFF21
:101B6400FF000000C58A0008A589000849EA0008AA
:101B740000000000DD84000805E800081D89000855
:101B840079E7000800000000000000009D840008C0
:101B9400358A00086589000899E9000800000000FA
:101BA400B58400087DE70008F1880008D5E6000840
:101BB4000000000000000000A98400082C6A060848
:101BC400FC40060800000000E55F0308A086010051
:101BD400040000002C6A0608346A060800000000AD
:101BE400590F0408E8030000040000003C4A0608FA
:101BF400000000000000000051F602087D00000013
:101C0400FF0000004048060800000000000000003B
:101C1400E5DA02087D000000FF0000006C4D0608B4
:101C24000000000000000000F11B03087D0000001C
:101C3400FF000000D44A0608000000000000000075
:101C440015130408E8030000030000003C6A0608BA
:101C54000000000000000000BDFF02081027000083
:101C64000300000030730608000000004D2F020836
:101C7400A97C04085F76000005000000E4760608ED
:101C840000000000000000001DA904081027000047
:101C940002000000486A060800000000000000007E
:101CA4005D0F0408E803000005000000546A0608FC
:101CB4000000000000000000196B0308204E000023
:101CC40003000000646A0608000000000000000031
:101CD40001690308204E000003000000746A06082E
:101CE400000000000000000059180408400D030023
:101CF40003000000A06806080000000000000000C7
:101D040011D503081027000002000000284106082E
:101D14000000000000000000ADC40108102700000E
:101D240003000000944606080000000000000000C4
:101D3400ED0D0408A861000002000000BC6806085C
:101D44000000000000000000A9460408A00F0000E5
:101D540002000000846A0608000000000000000081
:101D6400217C0108102700000200000068570608C3
:101D74000000000015140108516F01088545010099
:101D840002000000544606080000000000000000A5
:101D94009D8E000810270000020000001041060874
:101DA400000000000000000015F5010850C3000009
:101DB40002000000906A0608000000000000000015
:101DC400E19C0008400D030001000000986A060829
:101DD4000000000000000000C1B50308400D03002E
:101DE40002000000A06A06080000000000000000D5
:101DF400E5D3010850C3000003000000AC6A0608E4
:101E04000000000000000000597F030840420F005A
:101E140001000000B86A060800000000000000008D
:101E240035B8030850C3000001000000C46A060866
:101E34000000000000000000055801081027000001
:101E44000200000065B70308000000000000000065
:101E540000000000D90D040800000000000000008C
:101E64000000000001000000A00F0000B80B0000FB
:101E74000102FFFF010000000C73060800000802C5
:101E8400050303000000000018730608010008029F
:101E94000504030000000000247306080000080283
:101EA40005030300000000002C730608010008026B
:101EB4000504030000000000106806080200FE018B
:101EC4000110030000000000884706080300140204
:101ED40000030000000000003473060804001F0221
:101EE40002000800000000003C73060805001F0201
:101EF4000201080000000000FFFF0000FFFFFFFFD9
:101F040000010000204E000000000000000000005E
:101F14000000185006000000D007000001040C0067
:101F24000101186007000000A00F000002040E0069
:101F340002031870070000000A1A000003040C00D2
:101F44000305189006000000204E000000020C005B
:101F54000000000097FFFFFF81060000C409000095
:101F6400C409000003000000881300000101000000
:101F740094FFFFFFE40C0000B80B0000C40900004C
:101F840006000000881300000203000090FFFFFF1A
:101F9400EF160000AC0D0000C40900000A000000A8
:101FA40088130000030500008BFFFFFF0B480000AF
:101FB400A00F0000C4090000000000008813000006
:101FC400541900200000000004000000000000007C
:101FD4001542050800000000000000000000000099
:101FE4000100000000000000501900200000000063
:101FF40002000000000000000000000000000000DB
:102004000000000008000000010000006541050810
:1020140000000000000000000000000001000000BB
:1020240000000000860000007C1700200000000073
:102034000400000000000000454305080000000003
:10204400000000000000000001000000000000008B
:102054003C1900209C0D0120040000000000000039
:10206400B941050800000000000000000000000065
:1020740001000000000000004C19002000000000D6
:1020840004000000000000001542050800000000E4
:10209400000000000000000001000000000000003B
:1020A40048190020A40D01200400000000000000D5
:1020B40021470508000000000000000000000000A7
:1020C40001000000000000001B0000002018002098
:1020D40000000000030000000000000000000000F9
:1020E40000000000000000000800000001000000E3
:1020F4007541050800000000000000000000000019
:10210400010000000000000044190020A00D01207F
:1021140004000000000000008541050800000000E4
:1021240000000000000000000100000000000000AA
:10213400401900200000000004000000000000001E
:102144001542050800000000000000000000000027
:10215400010000000000000097000000B0180020FB
:10216400000000000300000000000000A941050871
:10217400000000000000000000000000010000005A
:102184000000000001010100000004010000020041
:1021940001000002100000000700FF000000000022
:1021A400000000000000000001000000000000002A
:1021B400000000000000000000000000010000001A
:1021C40000000000FF000000F401000030390608A0
:1021D40000000000000000000102030406070809D3
:1021E40001000000150000008200FFFF170000003E
:1021F4001D0000008200FFFF1A0000008300FFFFA3
:10220400FF00000060190020000000000000000032
:1022140000000000000000000000000000000000BA
:1022240000000000000000000000000000000000AA
:10223400000000000000000000000000000000009A
:10224400000000000000000000000000000000008A
:10225400000000000000000000000000000000007A
:08226400000000000000000072
:082800000000000000000000D0
:10800000134B0268196821EA02011960596821EAD4
:108010000201596019680A431A609968026821EAE6
:1080200002019960D96821EA0201D96041791029D9
:1080300007D001F1804303F59E3319680A431A60A3
:108040007047996811439960D9680A43DA607047AC
:10805000003C01402DE9F04700230F6801264FF056
:10806000030C02E00133102B41D006FA03F232EA8E
:108070000704F7D1D0F800E05C000CFA04F52EEA12
:10808000050EC0F800E091F80490D0F800A009FABD
:1080900004FE09F1FF394EEA0A0EB9F1010FA846B4
:1080A000C0F800E06FEA050515D8D0F808E005EA49
:1080B0000E0585604D79D0F808E0A54045EA0E052B
:1080C0008560456825EA020242608A7945689A40DF
:1080D00092B22A434260C26822EA0802C260CA79A8
:1080E000C568A24001332A43102BC260BDD1BDE850
:1080F000F08700BF037830B403B30246C0F1010536
:10810000531912F8014FDBB2002CF9D101335B0097
:10811000DAB20C4C0B80032322706370017859B1E2
:10812000022300255A1CD2B2E154A55410F8011FB5
:108130000233DBB20029F5D130BC7047022213466E
:10814000E7E700BFC0190020084AD2E94031994250
:108150000AD0D118013391F808110170C3F30A0352
:10816000C2F800310120704700207047C01900207C
:10817000064AD2F80839D2F80C29934294BF4FF43A
:1081800000600020013B9B1A18447047C019002072
:10819000012380F85130704707B501A8FFF7D4FFDD
:1081A0000028FAD09DF8040003B05DF804FB044BEE
:1081B000D3E94003984288BF03F50063181A70475B
:1081C000C019002001207047024BC3F81029C3F8E2
:1081D00014197047C0190020024BC3F81829C3F8BE
:1081E0001C197047C01900207047704730B4134DF8
:1081F000D5E940239A4286BF03F50064A21A9A1A71
:108200000A44B2F5006F13D8A9B101444A1E0138DF
:1082100010F8014FE918824203F1010381F8084187
:10822000C3F30A03F4D1C5F80431002030BC704711
:10823000022030BC70470846F8E700BFC019002094
:10824000F8B51A4C94F82039002BFBD159B30144EE
:108250004E1E451ED4F80C29D4F8081915F8017FD4
:10826000531CC3F30A038B422CBF4FF40060002061
:10827000C91A224401440129C4F80C3982F824792E
:108280000FD101203BF0F0FDD4F80839D4F80C19D7
:108290008B4294BF4FF4006200225B1A1344012BFF
:1082A000EFD0B542D6D10020F8BD00BFC0190020E4
:1082B00010B5074CE36A0846114643B1E36A052B43
:1082C00005D1002A236B02DDFFF7BAFF236B10BD37
:1082D000B82A002010B590F85010002380F85030D4
:1082E00061B1094CE26A5AB1E26A052A0AD13C300E
:1082F000236BFFF7A5FF236B012010BD0120FCE7D6
:108300001046FAE71846F8E7B82A0020002280F85D
:108310005120DFE790F85020531C0244DBB280F874
:10832000503082F83C1090F851200AB1132B00D93C
:10833000D0E77047212838B50C4605D022282DD02B
:10834000202812D0002038BD0029FBD0072AF9D1FF
:10835000194B586B93F8381093F8392093F83A304A
:10836000206021716271A371ECE70029EAD0072A2D
:10837000E8D1124AD2F814391BB1D2F810090968B1
:1083800098470D4B256820796179A2795D6383F860
:10839000380083F8391083F83A20D3E70029D1D088
:1083A000022ACFD1054AD2F81C39002BCAD009883D
:1083B000D2F818099847C5E7B82A0020C01900204C
:1083C000014B0020D8627047B82A0020044B054AB0
:1083D00000200521D162C3F81C09C3F814097047B5
:1083E000C0190020B82A0020704700BF704700BFA6
:1083F000704700BF704700BF704700BF704700BFA5
:10840000704700BF08B50248FFF774FE014808BD79
:1084100064390608C019002008B50248FFF76AFE53
:10842000014808BD74390608C019002008B5024883
:10843000FFF760FE014808BD80390608C01900201A
:1084400008B50248FFF756FE014808BD8C390608FA
:10845000C019002008B50248FFF74CFE014808BDCE
:1084600098390608C0190020042301480B80704782
:108470009801002010B4074A074B92F83C001224E0
:1084800003F114020C8001280CBF184610465DF859
:10849000044B7047B82A00209C0100206423014847
:1084A0000B807047C4010020432301480B807047B4
:1084B0002802002010B5074CD4F8D400FF2807D0BC
:1084C00005490A6C4431FFF735FFFF23C4F8D43067
:1084D000002010BD98010020B82A0020EAE700BF64
:1084E00008B5D0F8E4355B6A9847002008BD00BFA6
:1084F00008B5D0F8E4351B6A9847002008BD00BFD6
:10850000D0F8E43510B504461B689847D4F8E83530
:108510009B689847002010BD08B5D0F8E435DB69AA
:1085200003B19847002008BD08B5042290F8121145
:10853000D0F8E83580F8131180F81221DB689847ED
:10854000002008BD10B5D0F8E83504461B699847EF
:10855000032384F81231002010BD00BF0B0617D48E
:1085600001EB810300EBC30310B400EB8100012495
:10857000002283F8764383F8741383F87523426DE1
:108580005DF8044B136843F4001300201360704738
:1085900001F07F0101EB810300EBC303012200EB3B
:1085A000810083F81C1183F81E2183F81D21826944
:1085B0001368002B01DA43F0804343F40013136087
:1085C0000020704782B00023016801930B6901937A
:1085D0000E4B03E00A690192013B13D0019A002A75
:1085E000F8DA019A094B42F001020192019A0A61FC
:1085F0000A69019203E00A690192013B02D0019AE3
:10860000D207F8D4002002B0704700BF400D03002D
:10861000436D064A1A61C278012A06D100F2CC5095
:1086200058614FF0802219681A607047180008607E
:1086300010B580210446FFF791FF20460021FFF787
:108640008DFF2046BDE81040E2E700BF70B44B78D4
:10865000012B26D00B784A6900EB83035C6D2568FB
:108660002369D2B18A684A6102F07F0223F40023B1
:1086700023F07F0342F4002213432361C378012BCC
:1086800004BF0B696361C5F3076363F07B0363F3A6
:108690001F652560002070BC70478A6802F07F0269
:1086A000E4E782694C691568136944B38E68B44283
:1086B0008CBF06F07F0404F07F0423F4002323F032
:1086C0007F0344F4002443EA040388BF4E6113612E
:1086D000C378012B1DD0C5F3076464F07B0464F3F9
:1086E0001F651560002BD5D14B69002BD2D00269D4
:1086F0000878516B012383400B435363CAE723F48B
:10870000002323F07F0343F400231361C378012B7C
:10871000E1D10B780C6900EB8300C5F30763816935
:1087200063F07B0363F31F654C610020156070BC30
:10873000704700BF2DE9F0434B78012B30D00B7808
:108740004C6900EB83035E6D356837691CB38B6839
:108750001C44013CB4FBF3F4C4F3090203FB02F331
:10876000C3F312034B61144643EAC44363F31C078B
:108770003761C378012B04BF0B697361CB78012B80
:1087800044D0C5F3076363F07B0363F31F65356073
:108790000020BDE8F0838A680124C2F31203E3E7F6
:1087A00091F800804E6900EB880EDEF818C0DCF806
:1087B0000050DCF8107076B3D1F80890384A06EB18
:1087C0000904013CB4FBF9F402EAC444C6F3120202
:1087D0002243CC7807F060473A43012C174649D032
:1087E000CCF81020C278012A55D00269516B03FAE7
:1087F00008F30B435363C5F3076363F07B0363F331
:108800001F65CCF800500020BDE8F0834B7973B3AE
:1088100045F00055B5E707F0604747F40027CC78EE
:10882000CCF81070C378012B2FD0012CE3D1026952
:108830009268D20554BF45F0005545F08055C5F308
:10884000076262F07B0262F31F65CCF80050002BD8
:108850009ED1B0B203308010DEF8D04098D0CA6804
:1088600052F8041B216001339842F9D190E745F09A
:10887000805586E764F35E77CCF81070C378012BDF
:10888000D5D10A69CCF81420D1E70A69CCF81420B4
:10889000012CB0D1CBE70B69CCF81430ABE700BFAB
:1088A0000000F81F38B501EB810400EBC4040D464D
:1088B000002184F87453C4F88C1384F87513C4F839
:1088C0008833C4F88023C3782821012B01FB0501DC
:1088D00008BFEDB201F55D7108BFC4F884231DB96E
:1088E000FFF7B4FE002038BDFFF724FF002038BD9D
:1088F00010B501EB8101084A00EBC1010446B1F853
:108900008C131046FFF772FC034A204640230121D6
:10891000FFF7C8FF002010BD042B0020E8E700BFD0
:1089200030B44C780022012C154612D0097800EBA7
:10893000810401238B40646D63F31F4501696FF36C
:10894000CF322260CB6923EA0503002030BCCB6123
:1089500070470B7800EB83019C4064F30F058C6932
:10896000ECE700BF40F2011310B500F5A271044618
:10897000A0F84431FFF7D4FF0123A4F89C3304F599
:1089800067712046FFF7CCFF4FF48173A4F86C3178
:1089900004F5B6712046FFF7C3FFFFF711FD002075
:1089A00010BD00BF38B540F2031304460D46A0F8D1
:1089B000943100F5CA71FFF7B3FF29462046FFF74F
:1089C000D1FF002038BD00BFF0B44B780A78012BEE
:1089D0004FF0000400EB820524D0012393406D6D1D
:1089E00063F31F442E68330415D48A6891F803C0DA
:1089F000CF880F49C2F30A0242F0805343F4004388
:108A00000CF0030243EA824307F00F0243EA825369
:108A100031400B432B600369DA691443DC610020A9
:108A2000F0BC70479340AD6963F30F04DAE700BF11
:108A3000007833EC2DE9F04140F2011304460225A1
:108A40004FF0400801270026A0F84431C0F84C81BF
:108A500080F84751A0F84A7180F8486100F5A2718A
:108A6000FFF7B2FF04F56771A4F89C73C4F8A48300
:108A700084F89F5384F8A0632046FFF7A5FF0822DF
:108A800003234FF48171C4F87421A4F86C1184F8A5
:108A90006F3104F5B671A4F872512046FFF794FFC8
:108AA000064B9D83FFF792FC054A43462046394614
:108AB000FFF7F8FE3046BDE8F08100BF98010020C6
:108AC000042B002070B50323092240F2031604464C
:108AD0000D46C0F89C2180F89731A0F89A31A0F893
:108AE000946100F5CA71FFF76FFF29462046FFF732
:108AF000A1FF002070BD00BF70B5002540260446D0
:108B0000A0F8745380F87753C0F87C6300F55D716A
:108B1000FFF75AFF4FF48073A4F81C3104F58E71EF
:108B2000C4F8246184F81F51A4F822512046FFF7AD
:108B30004BFFD4F8E835A078012284F812215B6855
:108B40009847284670BD00BF82B000230193019A68
:108B5000094B42F010020192C168019A0A610A6948
:108B6000019203E00A690192013B02D0019AD20608
:108B7000F8D4002002B07047400D030082B00023FB
:108B80000193019A0B4B42F020020192019A61F38A
:108B90008A120192C168019A0A610A69019203E08E
:108BA0000A690192013B02D0019A9206F8D4002092
:108BB00002B07047400D03000E4BDA68D20310D4A8
:108BC000DA68D1060FD4DA68D20510D4DA6812F068
:108BD000E00F0AD1DB6813F0020F14BF0820092050
:108BE0007047012070470620704707207047022019
:108BF000704700BF003C024000207047134AD2F883
:108C00008C00C8B1D2F89030B3B1884212D88B42F0
:108C100034BF00230123DBB25BB1D2F89830C2F835
:108C20009410994205D00A4BC2F89810142083F88A
:108C3000D80070470023EEE7A1F59C53083BB3F53D
:108C40007A7F2CBF00230123E6E700BFB82A00206B
:108C500098010020064B93F89D2083F89C108A42CF
:108C600005D0044A83F89D10142082F8D80070477C
:108C7000B82A002098010020704730B1034B93F8C8
:108C80009E00012894BF002001207047B82A0020D0
:108C900008B5FFF7F2FF60B1064A92F89F3092F8EC
:108CA0009C205B0003F00203002A18BF43F001037D
:108CB0000B6008BDB82A002008B5FFF7DEFF18B129
:108CC000024BD3F8A0300B8008BD00BFB82A0020AB
:108CD00070B5FFF7D2FF60B10B4AB2F8A4503DB1B6
:108CE000D2F8A8600023B3421C4603DB002000E05A
:108CF0000D7070BD02EB44040133B4F8AC40AC42DB
:108D0000DBB2F0D10B70F4E7B82A002008B5FFF70A
:108D1000B4FF10B100230B70137008BD042070471E
:108D200028B1034B93F9DA00003818BF01207047CF
:108D30009801002008B5FFF7F3FF50B1054B93F9F8
:108D4000DA20012AC3BF93F8DD30C3F340030B6080
:108D5000002008BD9801002008B5FFF7E1FF18B119
:108D6000024B93F8DC300B7008BD00BF9801002067
:108D700070B5FFF7D5FF38B10E4C94F8DD30DB0746
:108D800003D500230B70137070BD0B4D94F9DB30CD
:108D900095F8BC6093FBF6F301330B7094F9DB405C
:108DA00095F8BC1094FBF1F301FB134301331370EE
:108DB000EAE700BF98010020B82A0020032070478E
:108DC00070B50A4A92F8C03006255E1CB6FBF5F471
:108DD00005FB146492F8C150AC4205D002EBC3030A
:108DE000C3E9310182F8C04070BD00BFB82A00203D
:108DF000002230B504461046914200DC30BDA35C31
:108E00000825584010F0800F4FEA400318BF83F048
:108E1000D503013DD8B2F5D10132EDE710B5E9B186
:108E20000F4BD3F8F400814218DCBAB1D3F8BC3050
:108E30009A4213DC0B4C013A013903FB012184F8FF
:108E4000E81004F1E4000521FFF7D2FF062184F8C1
:108E5000E90004F1E400BDE81040B1E710BD00BF37
:108E6000B82A0020980100200023038083708380AB
:108E7000C3800381704700BF074A92F8F83092F828
:108E8000FC100133DBB2994282F8F83004BF0023B2
:108E900082F8F830704700BFB82A0020F8B5794C46
:108EA000D4F8483283B1D4F84C3293F82E305BB109
:108EB000754B94F85022A3FB0013012A4FEA931339
:108EC00030D0022A08D002B1F8BD704B9842FBD9CD
:108ED000012384F85032F8BDD4F8542264329A4207
:108EE0003ED894F8F83004EB031393F8D426FF2A05
:108EF00006D067490132012083F8D42681F8EA00C0
:108F0000FFF7BAFF94F8C8360122092B84F85022E3
:108F1000DAD1B4F87A3713449BB2A4F87A37A4F8BC
:108F2000CE36F8BD94F8F810C4F854328C2303FB05
:108F3000014394F8C80683F86A22002604F51775E1
:108F40000A220223092884F86662C4F8585284F879
:108F5000672284F85032B7D10131A4F8CC16F8BD9D
:108F600094F8662294F867329A42ADD104F25B20FD
:108F700004F51975002310F8012F082153405A00F9
:108F800013F0800F08BF5B0082F0070214BFD3B25A
:108F9000DBB20139F3D18542EDD194F865229A42D2
:108FA00039D194F8F860B4F85F5294F86372B4F869
:108FB000610294F8643294F85DC204EB06126DBA53
:108FC00040BA43EA0723ADB294F85E7282F8D41631
:108FD000C2F8D85681B22E4D94F95C02C2F8DC1664
:108FE00047EA0C271BB20121032EA2F8D676A2F87D
:108FF000E03682F8D50685F8EA1009D894F8C82634
:109000000C2A2AD00D2A03D104EB4606A6F8CC067A
:10901000FFF732FF5CE794F8F83004EB031393F8A2
:10902000D426FF2A06D01A490132012083F8D4261B
:1090300081F8EA00FFF720FF94F8C8360122092BD7
:1090400084F850227FF440AFB4F8783713449BB2D1
:10905000A4F87837A4F8D036F8BD94F876170D4AFE
:1090600003EB830303EB830349089B0004EB4606F1
:1090700093FBF1F382FB0312DB17C3EBA203A6F809
:10908000CC36C5E7B82A0020D34D62103F4B4C00C8
:1090900098010020676666660B4B93F8661293F89A
:1090A000672291420ED010B493F86622D3F858424A
:1090B000511CD2B2C0B2C9B283F86612A0545DF896
:1090C000044B7047704700BFB82A0020FD2870B5D8
:1090D00022D0F02804D0EF2822D00224204670BDF0
:1090E000114D0320052641282E444FF0000405F1C0
:1090F000010580F080030DD0042B0BD9FFF7E6FFAC
:109100002044B542C4B2E9D015F8010B412880F0E3
:109110008003F1D10420F3E7044D0B200426E2E79D
:10912000034D0C200626DEE7F4390608FC39060854
:10913000EC390608144B30B4D3F87C4714B3002242
:109140000F2583F88217090A83F8810783F88317AC
:10915000C3F88427C3F88827C3F88C2783F880577F
:1091600003F5F060012110F8015F01312A440E2956
:10917000D2B2F8D183F88E272046044930BC1022A1
:109180003BF05ABA30BC7047B82A00203832002071
:10919000034B002183F89017C3F89417CAE700BF68
:1091A000B82A00202DE9F04FDFF88CA3D34D5646A6
:1091B00086468C4617460FCE05F5F3642DED068BDB
:1091C0000FC40FCE0FC496E807008BB095F8563742
:1091D000059784E80700CDE906EC042B00F24681F0
:1091E000DFE813F0B90144013F010500C9019FED1B
:1091F000C48ADFEDC48AC449C5F8B417C349C44B57
:10920000C44AC5F8B0170599002918BF134638EEAF
:10921000887AF5EE006AC6EE879ABF4EC5F8BC376D
:10922000A6F1660B06F1C0080027DFEDBC7A9FEDC2
:10923000BC9A28EE278AB0EE67AA079BBB4200F0D3
:109240000A811BF8012BAB1893F85B47002C00F048
:109250001281002102E0152900F00D8101EB41008F
:109260004B0018F800C0A44501F10101F3D12844D6
:1092700090F88D18002900F06C812046CDE9032379
:1092800039F02CFDDDE9032381464846CDE903236F
:1092900039F06AFE90F800C0BCF1000F40F0EB809E
:1092A000039A049B01322B44D2B2032183F8CD28C8
:1092B00083F8CC18B9F1000F00F0DD802309013BE1
:1092C000032B04F00F0000F208810AEB4304B4F80A
:1092D0002CC04CFA00F414F0010400F03881012491
:1092E00004FA00F0013800EA0C00CDE9032350F045
:1092F000B3FE049BDFF844C2039A5344032193F85E
:10930000343018440CEBC00373619971DA715CF866
:10931000300099F8082000F13F4101F57E010AEB89
:10932000912191F8381001F01F0C4909032904FA22
:109330000CF400F0DC80042900F0D280022900F057
:10934000FF809B880893B3FA83F3C3F11F03C3F331
:10935000CC0100EB810103F007030C6A9B004FF086
:109360000F0C0CFA03FC24EA0C040C620C6A02FADF
:1093700003F323430B62022308A90993FEF76AFE55
:10938000059B002B00F08380B5F85437D5F8801A80
:1093900007EE903AF8EEE77AFCEEE77A17EE900ADD
:1093A000B1FBF0F202F57F42FF32120CB1FBF2F298
:1093B00095F85617B2FBF0F0042983B27ED007EE81
:1093C000902AF8EE676A66EE887A29EE677A95F851
:1093D000570706990091A6EEA87A019049463046B3
:1093E000C6ED027A86ED037A2EF070F9002F70DD5B
:1093F0007368D5F8D02793426DD0012F69D0D5F886
:10940000E827934267D0022F63D0D5F80028934213
:1094100061D0032F5DD0D5F8182893425BD0042F7C
:1094200057D0D5F83028934255D0052F51D0D5F8D4
:10943000482893424FD0062F4BD0D5F86028D31A36
:1094400018BF012301370122082F3374727406F10B
:1094500018067FF4F2AE33480BB0BDEC068BBDE8C6
:10946000F08F9FED318AF0EE488AC4E69FED2F8A97
:10947000F0EE488ABFE62E4A264BC5F8B4270020F6
:10948000C5F8BC370BB0BDEC068BBDE8F08FB0EE75
:10949000690A51F07BFCFCEEC07A4FF6FF7317EEC1
:1094A000902AD5F8801AB1FBF2F21A44120CB1FBE3
:1094B000F2F295F856170429184680D107EE900A63
:1094C00007EE102AF8EE677AF8EE476A67EE8A7AB6
:1094D0007BE70123B6E70023B4E7C6F814C04FE7E3
:1094E0001449D1F830C044EA0C040C6329E711494F
:1094F000D1F840C044EA0C040C6422E7B82A0020EA
:10950000ACC5A737ACC5A736996803088D11040808
:10951000A15C030881110408843200206F12833A91
:1095200000007A4450320020282930386F12033965
:10953000F15D03080038024054C50508B03300202F
:109540000E49D1F844C044EA0C044C64F9E6746155
:1095500016E7894699E69FED0A8A0A4A0A4BC5F83A
:10956000B427C5F8B03700220123CDE90532F0EE6B
:10957000488A064B4BE69FED068AEEE7003802402C
:109580006F12833A996803088D1104088111040849
:1095900000000000F8B50546262026F015F9144C09
:1095A000014600BBD4F8840A90F838301E3B012BEA
:1095B00002D894F8913A0BB13BF072F80D4F0026A7
:1095C000AE4208DBB4F8B23A0133A4F8B23A236BE6
:1095D000C4F8C43AF8BD17F8011BD4F8840A3BF06C
:1095E0005FF80136ECE7002384F8C03AEFE700BFEC
:1095F000B82A00204A35002038B5144C94F8C13000
:1096000094F8C0209A421AD004EBC303D3E9312066
:1096100004F692210023984212DC9378C4F8C80A19
:109620005B0884F8C03AFFF7B5FF94F8C130062113
:109630000133B3FBF1F201FB123384F8C13038BDC2
:10964000D55C01F8015B0133E5E700BFB82A0020D3
:1096500013B504462620019126F0B6F8019920B9E9
:10966000204602B0BDE8104064E502B010BD2DE90F
:10967000F04F244C87B094F8892A01924FF00009EA
:1096800005461E20CDF80C90ADF8149026F09CF8FD
:1096900094F888BA94F88A6AB4F88CAAB4F88E8AD6
:1096A00094F8907A019A28B1B8F1000F02D0C2461E
:1096B0000126CB4694F8CC3AD9070AD494F8D31AA9
:1096C00039B9012F1BD0022F03D113F0020F08BFAD
:1096D00001268DF814708DF80CB08DF80D208DF8E2
:1096E0000E60ADF810A0ADF8128003AB03CB1B8861
:1096F0002860284669602B8107B0BDE8F08F3E46A0
:10970000E7E700BFB82A002007B50DF1060214F004
:10971000C3FB70B1084BBDF80620B3F8F81AA3F8E4
:10972000A420914205D00549A3F8F82A142081F815
:10973000D80003B05DF804FBB82A0020980100208F
:1097400013B50446FFF7ECFA08B300230DF1060247
:109750002046ADF8063014F09FFBC0B10D4C9DF8CB
:10976000062094F9DA1084F8EF20032908BF62F08C
:109770007F024FF00501084808BF84F8EF20FFF78B
:1097800037FB062184F8F0000348FFF719FB02B00D
:1097900010BD00BF98010020830200202DE9F7438F
:1097A000C54CD4F87C370D464BB14FF0020800276A
:1097B0004FF00109D4F87C073AF06EFF60B900263B
:1097C00094F89E30042B00F27281DFE813F09700CA
:1097D000F6000A0157016001D4F87C073AF054FF03
:1097E000D4F894375A1C2344C4F8942783F8FA0A0F
:1097F00094F89037012B0AD0022B11D0002B78D18E
:109800000F280CBF84F89097C4F89437D2E7A0F1E2
:109810007203012B01D976286BD184F89087C9E7B0
:10982000102AC7D1A5490023012211F8010F0132E6
:1098300003440E2ADBB2F8D194F8082B84F8907711
:109840009A42C4F89477B5D194F8093B002BB1D172
:1098500094F8FB6A732E3FD0762E0FD0722EA9D1CA
:1098600094F8FD2A94F8FC3A53EA0223A2D0C4F8F3
:109870008C30B4F8FE3AC4F89030A1E794F8FD2A91
:1098800094F8FC3A53EA022394D094F8FF1A94F81F
:10989000FE2A94F8030BC4F8A03042EA012294F89F
:1098A000001B84F89F1094F8011B84F80C1B94F89B
:1098B000021BA4F80A2B41EA0021A4F80E1BD4F8DD
:1098C000941009B9C4F89430B4F8A430002B7FF494
:1098D00077AFA4F8A42073E794F8012B94F8003B29
:1098E00043EA02231AB2002B3FF464AFA4F8102B12
:1098F00066E784F89077C4F894775BE7722E4ED1D0
:10990000012384F89E30002294F8C836402B36D1CB
:10991000B4F8A400A4F8CE6694F80C6B94F89E30CA
:10992000B4F80ACBA4F8CC360502330394F89C10A3
:10993000D4F8A07005F4706503F440532B434FEA4C
:109940000C1543EA8133EDB22B43D4F894501BB28B
:10995000BD4214BF082500251343604514BF0420F1
:1099600000202B430343B14214BF022100211943BD
:10997000534BA4F8D01693F8D830A4F8D236D4F8C4
:10998000F43023B1D4F8A830002B40F0A3804D4927
:109990004D481F2203B0BDE8F04352F0C8BDD4F8D3
:1099A000143B4A4AEB1A934201DC0022ACE77220D6
:1099B000FFF7EEFBC4F8145BF7E7762E04D1022321
:1099C00084F89E3000229FE7D4F8143B3F4AEB1AFC
:1099D0009342EADD7620FFF7DBFBC4F8145B00223C
:1099E00092E7374FD4F8143B97F8D820EB1AB2B36C
:1099F000364A934236DD94F89F20D2071FD4D4F81C
:109A00009410D4F8A02091420FD089B24620FFF7DD
:109A10001FFE97F8D830C4F8145B013B87F8D830A4
:109A2000042384F89E3001226EE7B4F8A410B4F841
:109A30000A2B8A4203D05020FFF70AFEE9E794F888
:109A40009C1094F80C2B8A4206D0B1FA81F1490996
:109A50004920FFF7FDFDDCE7142287F8D8201C4AD7
:109A60009342B7DC762EA0D17320FFF791FB03233E
:109A700084F89E30C4F8145B002245E7732E94D01E
:109A8000D4F8141B114B691A994298DC8DE7D4F86D
:109A9000143B0E4AEB1A934287DD7620FFF778FBE2
:109AA000022384F89E30C4F8145B00222CE70023C4
:109AB00084F89E301A4627E7B82A0020B2350020E5
:109AC00098010020443A0608890200203F0D030057
:109AD0003F420F00334DD4F8186B2A2385F8F1303C
:109AE0000DF1020220230DF10101304685F8F2301C
:109AF00014F069FA30B19DF801109DF8027051EA36
:109B0000070339D1552385F8F330462385F8F4301F
:109B1000202301A9304685F8F53014F04EFA0346AB
:109B2000214813B1BDF804209ABB204947F07CFDC1
:109B3000B4F80E7B1E4D87B30DF10301304614F0CF
:109B40003FFA50B39DF803100DF10602304614F0B1
:109B5000A3F910B3BDF8062016493B46BA420CBF24
:109B600020222A22284647F05FFDB4F8103BA4F8D3
:109B70001C3B03B0BDE8F083304614F009FA3946C7
:109B800085F8F300304614F0EFF9037885F8F430E7
:109B9000BEE7094947F048FDCAE70849284647F0AB
:109BA00043FDE2E7980100208E020020663A060895
:109BB000920200205E3A0608FE8E0608653A060804
:109BC00038B50B680E4D5A1C0A6005221A700B68D6
:109BD00095F8DA200C46591C21601A70236895F814
:109BE000DD20591C21601A70B5F8E010204642F0C3
:109BF000FBFD236895F8E220591C21601A7038BDDE
:109C0000980100202DE9F0472DED028BFFF788F831
:109C1000C8B31E4B93F9DA00012834DD93F81041E4
:109C20001B4F9FED1C8A15468E1E02EB44084FF019
:109C30003209454504D1BDEC028B2046BDE8F087D2
:109C400037F802AB26F802AF07EE90AAF8EEE70A63
:109C5000B2EE040A60EE880A51F002FABCEEC00AC5
:109C6000BAF10E0F10EE103A9BB209D91933B3FBBB
:109C7000F9F39BB203EB830303EB83035B009BB21B
:109C800025F8023BD5E70024D5E700BF9801002066
:109C9000D6350020CDCCCC3D38B50D46FFF740F889
:109CA000044638B10C4890F8DD30DB0704D5B0F835
:109CB000DE002880204638BD084A90F9DB3092F853
:109CC000BC2093FBF2F102FB11320132013100F5AD
:109CD0008A7014F0F5F8ECE798010020B82A00200B
:109CE0002DE9F047A84D95F82E3B8AB08146002B10
:109CF00040F0B280D5F8186B002E00F0AD80A34A7A
:109D0000D2F8184104F0F021B1F1E02F6BD1C2F884
:109D10001831D5F8302B944265D004930593ADF8F3
:109D20001830B5F88C3A95F888EAADF8143095F803
:109D300089CA95F8903A95F88A8A8DF8183004AF58
:109D40008DF810E08DF811C08DF8128097E80700AB
:109D500007AB03C31A808E4AC5F8304BC4F3425395
:109D6000D15CC4F303428E4502F1010201D1944556
:109D700008D030468DF81C108DF81D2014F0A0F886
:109D8000ADF82000304614F0EEFA032804F0070A7C
:109D900034D0042836D00023984501A9304618BF96
:109DA0008DF81E3014F006F948B1019BC4F3001180
:109DB00003F001038B4202D0304614F0ABF90A22C3
:109DC00007A9384652F04DFB68B19DF81E30BDF82A
:109DD0001C2085F88A3ABDF82030A5F8882AA5F815
:109DE0008C3A43F07FFE95F834AB04AF95F8343BE2
:109DF000032B7BD8DFE803F00A3376A3654B13F817
:109E00000A30C9E7644B13F80A30C5E739463046D3
:109E100014F0D6F8044658B107A8FFF728FC9DF8BF
:109E20001E109DF810308B4260D0304614F0FEF9C1
:109E300095F8343B013303F0030385F8343B0CB948
:109E40009A45D3D195F8CC3ADB0700D524B13368D5
:109E500049461B68304698470AB0BDE8F08701A81C
:109E6000FFF705FC95F8CC8A9DF8044008F001083E
:109E7000ECB1B8F1000F39D13A460DF1030130468B
:109E800014F0A1F8044688B307A8FFF7F0FB9DF88B
:109E90001C109DF803309DF81D208B4203D19DF8C6
:109EA0001030934222D0304614F0CAF9C0E7B8F11E
:109EB000000FBDD13946304614F07FF80446A8B1F2
:109EC00007A8FFF7D4FBBDF82010BDF810308B4277
:109ED0000CD085F8358B85F8368B336830469B6916
:109EE0009847A5E795F8CC3AD80701D500249FE715
:109EF00007A9304614F05EF804460028F6D01E206C
:109F000025F062FC95F8373B83428046EED085F819
:109F1000370B60B1B5F88E3A002BE7D1079BD90714
:109F2000E4D40121304614F0F5F8444680E7079B5D
:109F3000DA07DBD50146304614F0ECF878E738460E
:109F4000FFF795FB97E8070007AB03C31A809DF85E
:109F500010309BB10DF11D0207A9304614F033F803
:109F60000DF11E01304614F02BF80A2207A93846DD
:109F700052F077FA041E18BF012459E708A93046A9
:109F800014F01BF8ECE700BFB82A0020980100206D
:109F90001C3A0608103A0608043A06082DE9F04172
:109FA000FD2984B0044669D0F02949D0EF2900F09A
:109FB000BF804AB10346861803AD002003F8010BA9
:109FC0009E4205F8010BF9D1BA4B0B2003F10905AC
:109FD00001E013F8010F814255D0AB42F9D14B1E7D
:109FE000152B21D8DFE813F0C500D000DA00E70018
:109FF000EE00F400160004010001200020002301FF
:10A000002301230110011001100100012000200094
:10A010001B01AD00A84D95F8CC3ADE0700F16D812B
:10A02000B5F8A43BADF80C303AB1224403AB13F8B9
:10A03000011B04F8011BA242F9D104B0BDE8F08174
:10A040009E4F03214FF00508B844002501370CE06E
:10A05000FFF73CF8064660193246FFF79FFF70197C
:10A060004745C5B2E9D017F8011B412981F08003AB
:10A07000084601D0042BEBD80426ECE7904F0B21C7
:10A080004FF00408E0E78C4BD3F8280C80060CD482
:10A09000002AD2D0224403AB13F8011B04F8011BA1
:10A0A0009442F9D104B0BDE8F08193F8380B10F078
:10A0B000020F93F8500B40D0052834BF022503252A
:10A0C000142917D97C39C8B20628E1D80629DFD867
:10A0D00001A050F821F000BFA9A20008A9A2000821
:10A0E00091A2000891A0000889A2000881A200089E
:10A0F00079A200080929CBD90A390A29C8D801A6AA
:10A1000056F821F065A20008DDA2000891A0000821
:10A1100091A0000891A0000891A0000891A000085B
:10A1200091A0000891A000085BA20008A9A2000865
:10A13000644F0C214FF0060886E70B29A8D10125B2
:10A14000CDE05D4BB3F8C41BCD055ABFCB4303F044
:10A150000103032311F0440F18BF042311F0020F71
:10A1600018BF072311F4806F18BF0923ADF80C3016
:10A170005AE7514BB3F8843B03EB83035B0003F5D1
:10A18000C873ADF80C304FE74F4BD3ED037AFDEEBB
:10A19000E77A17EE903AADF80C3045E7464B93F866
:10A1A000631B002900F0A08001922DF0EFFC019AC2
:10A1B000ADF80C0038E701922DF0E8FC019AADF8FB
:10A1C0000C0031E73C4BD3F8B43BADF80C302BE737
:10A1D000394BB3F8A41B002900F0898001922DF0BF
:10A1E000E1FC019A80B2E3E7334BB3F8263C19E770
:10A1F000314B3649B3F9243C81FB0301DB17C3EB38
:10A20000A103ADF80C300FE72B4B03EB4101B1F884
:10A21000023C03EB83035B00ADF80C3004E7264BF4
:10A2200093F8CC3A03F00103ADF80C30FCE6284B70
:10A23000DFED286AD3ED007A0C39C9B203EB810354
:10A2400093ED127A67EEA67A67EE877AFDEEE77AEB
:10A2500017EE903AADF80C30E6E6B3F84A3BADF8AD
:10A260000C3015E7B3F84C3B03EB830303EB83039C
:10A270009B00ADF80C300BE7D3F8443B039307E7A2
:10A28000D3F8403B039303E7D3F83C3B0393FFE64B
:10A29000B3F84A3B104903EBC3039B00A1FB031334
:10A2A0005B09ADF80C30F3E6B3F8543BADF80C3075
:10A2B000EEE600BFE0390608B82A0020F4390608A7
:10A2C000FC390608EC3906084036002067666666E9
:10A2D0008036002000007A441F85EB51EDB28DF8E6
:10A2E0000C508DF80D00D3E6B3F87C0B60E7D3F883
:10A2F000BC0B80F3100080B25AE7019227F038FCC3
:10A3000005F68833D3ED037A019AFCEEE77A17EE6F
:10A31000903A9BB200287FF485AED5F8C01B11F0AF
:10A32000100F18BF00237DE600F01F024009012333
:10A33000032803FA02F304D004280CD0022805D025
:10A340007047074A116C0B4313647047044A516C01
:10A350000B4353647047024A116B0B4313637047FE
:10A360000038024000487047103400200E4B30B4D3
:10A37000DB68427801780D4CDB43C3F30223C3F161
:10A380000403DBB202FA03F360181B0101F01F059E
:10A390000122490903F0F003AA4080F8003344F891
:10A3A000212030BC704700BF00ED00E000E100E07C
:10A3B000002877D02DE9F04104468088B0FA80F07B
:10A3C00020281F4684B0C0F11F0354D0DFF8E4807A
:10A3D000354D08EB03064FF0004C05EB83033CFAC8
:10A3E00000F096F84060C3F82C1C05D02F4B19687C
:10A3F00021EA0001196058611146204638F0C8FF73
:10A40000A3882168B3FA83F3C3F11F0202F0FC00B2
:10A4100000F1804000F59C3002F0030294004FF000
:10A420000F0C01F13F4281680CFA04FC21EA0C0197
:10A43000816002F57E0208EB8707D0F808C0396D0D
:10A440008DF80D10C2F38722A24042EA0C024FF0B1
:10A450000041354421FA03F382600021012202A861
:10A4600002938DF80C108DF80E20FDF7C9FD95F8BC
:10A470006C3CF02B02D804B0BDE8F0810C4B9B5D26
:10A480008DF80430F02103224FF4807301A885F881
:10A490006C1C8DF80520ADF80630FFF767FF04B09F
:10A4A000BDE8F081704700BFB82A0020003C0140A1
:10A4B0003C3A060854C5050800286BD0F0B58388DF
:10A4C000B3FA83F3202B85B00446C3F11F024CD0AE
:10A4D000314D32484FF00041104405EB820205F641
:10A4E000744731FA03F390F84060C2F82C7C05D031
:10A4F0002B4A116821EA03011160536120460021B3
:10A5000038F046FFA3882268B3FA83F4C4F11F032E
:10A5100003F0FC0101F1804101F59C3103F00303DC
:10A5200098000F2702F13F438A68874022EA07021A
:10A5300003F57E038A60C3F38723834088684FF066
:10A5400000420343354422FA04F48B604FF4406226
:10A55000012302A88DF80E300294ADF80C20FDF70F
:10A560004FFD95F86C3CF02B01D805B0F0BD0D4BBC
:10A570009B5D8DF80430F02103224FF4807301A815
:10A5800085F86C1C8DF80520ADF80630FFF7EEFE5F
:10A5900005B0F0BD704700BFB82A002054C50508BB
:10A5A000003C01403C3A0608454B5B68C3F3080396
:10A5B0002DE9F041002B61D1EFF31183002B5DD128
:10A5C000404A414C116BA068136B9942FAD1D2F802
:10A5D000803C9842F6D8D2F87C5C4FF47A7404FB45
:10A5E00005F3181AB0FBF5F004FB0101344D3648B1
:10A5F00010264FF47A7401276B68C3F30803E3B99C
:10A60000EFF31183CBB9136BD0F808E0D2F830C068
:10A610006345F8D1D2F880CCE645F4D8D2F87C8CEA
:10A6200004FB08FCACEB0E0CBCFBF8FC04FB03C306
:10A630005B1A772BE0D9BDE8F081EFF3118E86F33A
:10A640001288D0F808800368DB0344BFC2F8787C26
:10A65000D0F80880D2F830C0D2F8783C5FFA8EFE8D
:10A660008EF31188D2F87CEC634404FB0EFCACEB57
:10A67000080CBCFBFEFC04FB03C3D9E7EFF311801D
:10A68000102383F3128810490E4A8D680B68DC038F
:10A6900042BF0123C2F8783C8D68136BD2F8781C56
:10A6A000C0B280F31188D2F87C4C4FF47A70194410
:10A6B00000FB04F35B1BB3FBF4F300FB013195E7F4
:10A6C00000ED00E0B82A002010E000E0464B5B6897
:10A6D000C3F308032DE9F041002B62D1EFF311839E
:10A6E000002B5ED1414A424C116BA068136B99421A
:10A6F000FAD1D2F8803C9842F6D8D2F87C5C4FF47C
:10A700007A7404FB05F3181AB0FBF5F004FB0101A1
:10A71000354D374810264FF47A7401276B68C3F320
:10A720000803EBB9EFF31183D3B9136BD0F808E04A
:10A73000D2F830C06345F8D1D2F880CCE645F4D8E1
:10A74000D2F87C8C04FB08FCACEB0E0CBCFBF8FCD8
:10A7500004FB03C35B1AB3F57A7FDFD3BDE8F08156
:10A76000EFF3118E86F31288D0F808800368DB03BC
:10A7700044BFC2F8787CD0F80880D2F830C0D2F854
:10A78000783C5FFA8EFE8EF31188D2F87CEC63443D
:10A7900004FB0EFCACEB080CBCFBFEFC04FB03C38F
:10A7A000D8E7EFF31180102383F3128810490F4A82
:10A7B0008D680B68DC0342BF0123C2F8783C8D68CA
:10A7C000136BD2F8781CC0B280F31188D2F87C4C9D
:10A7D0004FF47A70194400FB04F35B1BB3FBF4F3F2
:10A7E00000FB013194E700BF00ED00E0B82A002033
:10A7F00010E000E02DE9F84FB34C94F8841C0546B6
:10A80000C1F34001D4F88C0C3DF0FAF994F8841CA3
:10A81000D4F8880CC94301F001013DF0F1F9002D95
:10A8200000F0C3806E1EA94FA94D5FFA86FB4FF062
:10A830001008D4F88C0C3DF0C7F9D4F8880C3DF022
:10A84000C3F9B4F8943C002B40F0358194F8961C81
:10A85000D4F8980C3DF0D4F94FF0FA094FF47A701F
:10A860004FF0010C7B68C3F30803002B40F0FB8022
:10A87000EFF31183002B40F0F680226BA968236B65
:10A880009A42FAD1D4F8803C9942F6D8D4F87C6C3C
:10A8900000FB06F35B1AB3FBF6F300FB02327B68A6
:10A8A000C3F30803002B40F09F80EFF31183002BCC
:10A8B00040F09A80236BD5F808A0216B8B42F9D128
:10A8C000D4F8801C8A45F5D8D4F87C6C00FB06F1DE
:10A8D000A1EB0A01B1FBF6F100FB03139B1AB3F5E0
:10A8E0007A7FDCD3B9F10109BCD1D4F88C0C3DF0EE
:10A8F0006BF9D4F8880C3DF067F9B4F8943C002B60
:10A9000040F0CD8094F8961CD4F8980C81F00101A9
:10A910003DF076F94FF0FA0C4FF47A704FF0010EDB
:10A920007B68C3F30803002B7ED1EFF31183002B68
:10A930007AD1226BA968236B9A42FAD1D4F8803C71
:10A940009942F6D8D4F87C9C00FB09F35B1AB3FB60
:10A95000F9F300FB02327B68C3F308033BBBEFF360
:10A96000118323BB236BD5F808A0216B8B42F9D14F
:10A97000D4F8801C8A45F5D8D4F87C9C00FB09F1FA
:10A98000A1EB0A01B1FBF9F100FB03139B1AB3F52C
:10A990007A7FE0D3BCF1010CC2D10BF1FF365FFA34
:10A9A00086FBBBF1FF0F7FF444AFBDE8F88FEFF3F8
:10A9B000118988F31288AE682B68DB0344BFC4F8A2
:10A9C00078ECAE68236BD4F8781C5FFA89F989F3C8
:10A9D0001188D4F87C9C0B4400FB09F1891BB1FB66
:10A9E000F9F100FB0313D1E7EFF3118E88F312881E
:10A9F000D5F808A02B68D90344BFC4F878CCD5F8A3
:10AA000008A0236BD4F8781C5FFA8EFE8EF31188B1
:10AA1000D4F87C6C0B4400FB06F1A1EB0A01B1FBFE
:10AA2000F6F100FB031359E7EFF3118188F3128865
:10AA3000D5F808902B68DA0344BFC4F878ECD5F851
:10AA40000890236BD4F8782CC9B281F31188D4F81C
:10AA50007C1C1A4400FB01F3A3EB0903B3FBF1F3E5
:10AA600000FB023277E7EFF3118188F31288AE68BA
:10AA70002B68DB0344BFC4F878CCAE68236BD4F8F2
:10AA8000782CC9B281F31188D4F87C1C1A4400FBDD
:10AA900001F39B1BB3FBF1F300FB0232FFE6D4F89A
:10AAA000B03C002B3FF436AFD4F89C3CC3F8009088
:10AAB00084F8AD9C2EE7D4F8B03C002B3FF4CCAE2C
:10AAC00039F096FAC8E600BFB82A002000ED00E091
:10AAD00010E000E02DE9F84FB04CB14F94F8841C21
:10AAE000D4F88C0CAF4DC1F340013DF089F894F8D7
:10AAF000841CD4F8880CC94301F001013DF080F8B2
:10AB00004FF0050B4FF01008D4F88C0C3DF05CF8BA
:10AB1000D4F8880C3DF058F8B4F8943C002B40F081
:10AB2000358194F8961CD4F8980C3DF069F83226DB
:10AB30004FF47A704FF0010C7B68C3F30803002BCD
:10AB400040F0FA80EFF31183002B40F0F580226B88
:10AB5000A968236B9A42FAD1D4F8803C9942F6D87E
:10AB6000D4F87CEC00FB0EF35B1AB3FBFEF300FBA6
:10AB700002327B68C3F30803002B40F09E80EFF3A2
:10AB80001183002B40F09980236BD5F808A0216B2E
:10AB90008B42F9D1D4F8801C8A45F5D8D4F87CECE6
:10ABA00000FB0EF1A1EB0A01B1FBFEF100FB031368
:10ABB0009B1AB3F57A7FDCD3013EBDD1D4F88C0C5F
:10ABC0003DF002F8D4F8880C3CF0FEFFB4F8943C59
:10ABD000002B40F0D08094F8961CD4F8980C81F0AB
:10ABE00001013DF00DF84FF0320C4FF47A70012660
:10ABF0007B68C3F30803002B7FD1EFF31183002B95
:10AC00007BD1226BA968236B9A42FAD1D4F8803C9D
:10AC10009942F6D8D4F87C9C00FB09F35B1AB3FB8D
:10AC2000F9F300FB02327B68C3F308032BBBEFF39D
:10AC3000118313BB236BD5F808A0216B8B42F9D18C
:10AC4000D4F8801C8A45F5D8D4F87C9C00FB09F127
:10AC5000A1EB0A01B1FBF9F100FB03139B1AB3F559
:10AC60007A7FE0D3BCF1010CC2D10BF1FF3616F0B4
:10AC7000FF0B7FF449AFBDE8F88FEFF3118988F33C
:10AC80001288D5F808A02B68DB0344BFC4F8786CA1
:10AC9000D5F808A0236BD4F8781C5FFA89F989F3FA
:10ACA0001188D4F87C9C0B4400FB09F1A1EB0A014C
:10ACB000B1FBF9F100FB0313D0E7EFF3118E88F33A
:10ACC0001288D5F808A02B68D90344BFC4F878CC03
:10ACD000D5F808A0236BD4F8781C5FFA8EFE8EF3AB
:10ACE0001188D4F87CEC0B4400FB0EF1A1EB0A01B7
:10ACF000B1FBFEF100FB03135AE7EFF3118188F378
:10AD00001288D5F808902B68DA0344BFC4F8786C31
:10AD1000D5F80890236BD4F8782CC9B281F3118848
:10AD2000D4F87C1C1A4400FB01F3A3EB0903B3FB2A
:10AD3000F1F300FB023276E7EFF3118188F312881A
:10AD4000D5F808E02B68DB0344BFC4F878CCD5F80D
:10AD500008E0236BD4F8782CC9B281F31188D4F8B9
:10AD60007C1C1A4400FB01F3A3EB0E03B3FBF1F3CD
:10AD700000FB0232FDE6D4F8B03C002B3FF433AFC9
:10AD8000D4F89C3C1E6084F8AD6C2CE7D4F8B03C41
:10AD9000002B3FF4CCAE39F02BF9C8E6B82A0020DE
:10ADA00000ED00E010E000E010B4B8B10D4CD4F8B4
:10ADB000B43C102B05D15DF8044B0521002038F080
:10ADC000CFBD03EB4302224482F8B91C01210B449E
:10ADD00082F8B80C82F8BA1CC4F8B43C5DF8044B95
:10ADE000704700BFB82A002000285FD00368374AA8
:10ADF0002DE9F04103F13F4404F57E0402EB942277
:10AE0000012492F8382002F01F055209032A04FA9F
:10AE100005F456D0042A4FD0022A48D08588B5FAC6
:10AE200085F0C0F11F00C0F3CC0603EB860600F0EE
:10AE3000070082000F24306A944020EA0400306248
:10AE4000306A01FA02F20243002132624FF0010E31
:10AE50000A464FF0030C02270EFA02F838EA050002
:10AE600002F101021CD118680CFA01F420EA040076
:10AE70001860186807FA01F606431E609E6826EA05
:10AE800004069E6098689860586820EA0800586038
:10AE900058685860D86820EA0400D860D868D8603C
:10AEA000102A01F10201D7D1BDE8F0817047084AAC
:10AEB000556C2C435464B1E7054A156B2C4314635D
:10AEC000ACE7034A156C2C431464A7E754C5050886
:10AED0000038024070B5464E96F8E84C04EB440347
:10AEE00006EBC303650093F8EC3C032B6ED8DFE858
:10AEF00003F059291E02254406EBC505D5F8F00CD0
:10AF0000002870D196F84C3D9C425FD0013404F08B
:10AF10000302934286F8E82C58D002EB420406EB79
:10AF2000C4040223C4F8F00C84F8EC3C70BD2B1967
:10AF300006EBC303D3F8F02C72B1013AC3F8F02C3E
:10AF4000002070BD2B1906EBC303D3F8F02C002AA8
:10AF5000F3D1022283F8EC2C254406EBC50595F8C5
:10AF6000F83C013BDBB285F8F83C8BBB214B96F8F3
:10AF70004C6DD3F81C11D5F8F40C621C02F00302DE
:10AF80004B1E0324B242034485F8EC4CB3FBF1F0B2
:10AF9000C5F8F00C1AD0994218D80138C5F8F00C51
:10AFA000012070BD3EF00EFF80B1124B2C44D3F84F
:10AFB0001C2106EBC404012102F51C5384F8EC1C8F
:10AFC0000F33B3FBF2F3C4F8F03C70BD012070BD49
:10AFD000084BD3F81C21012002F2E733B3FBF2F354
:10AFE000C5F8F03C70BD0138C5F8F00C002070BD0C
:10AFF000B82A0020980100202DE9F04FAF4EB04D47
:10B0000095B0002304460F464FF4F072202106F558
:10B010005560019486F84D3D86F84E3D51F049FA51
:10B02000202106F573604FF4F07251F042FAA54901
:10B03000BB4632244FF0100C4FF47A7001276B6836
:10B04000C3F30803002B40F0B780EFF31183002B0C
:10B0500040F0B280326BD1F80880336B9A42F9D15C
:10B06000D6F8803C9845F5D8D6F87C9C00FB09F3CF
:10B07000A3EB0803B3FBF9F300FB02326B68C3F3E5
:10B080000803002B78D1EFF31183002B74D1336BBD
:10B09000D1F808A0D6F830804345F8D1D6F8808C96
:10B0A000C245F4D8D6F87C9C00FB09F8A8EB0A0846
:10B0B000B8FBF9F800FB03839B1AB3F57A7FDDD365
:10B0C000013CBCD1804C627E002A50D0A37E013B63
:10B0D000022B4CD803EB830504EBC50104F1B4004B
:10B0E00091F8B4C000EBC500BCF1020F4FF00105B0
:10B0F000E06184F8A45000F0A882DBB204EB0313F3
:10B10000D3F82C31C1F8B8308BB302204FF48073E0
:10B1100081F8B400A1F8C03004F12C0004F16803F8
:10B12000C1E933031509013D032D02F00F0200F2BE
:10B130007082DFF8A08108EB4503988D40FA02F396
:10B14000DB0740F16682012303FA02F2013A104064
:10B1500045444EF081FF95F834205C4B104403EBDE
:10B16000C00060628379002B46D0412B44D06FF041
:10B17000010015B0BDE8F08FEFF311898CF3128850
:10B18000D1F808A00B68DB0344BFC6F8787CD1F87F
:10B1900008A0336BD6F8788C5FFA89F989F31188A7
:10B1A000D6F87C9C434400FB09F8A8EB0A08B8FBDE
:10B1B000F9F800FB03837FE7EFF311888CF3128823
:10B1C000D1F808900B68DA0344BFC6F8787CD1F850
:10B1D0000890336BD6F8782C5FFA88F888F31188DA
:10B1E000D6F87C8C1A4400FB08F3A3EB0903B3FBED
:10B1F000F8F300FB023241E72323C380092138F032
:10B20000C7F8636A13B11A689B881383D6F8802A3B
:10B210002F4BB3EB920F80F01E82B3EBD20F80F076
:10B220001C82B3EB121F80F01D82B3EB521F80F023
:10B230001E82B3EB921F80F01F82B3EBD21F80F00F
:10B240002082B3EB122F80F01E824FF48072002315
:10B250000DF10D01FF2022840122CDE90413CDE977
:10B260000833CDE90A33E1698DF80D000D9306929C
:10B270008DF81C208DF83020EFF31180102383F31C
:10B280001288E3691B6A002B00F0C681069B04AD9F
:10B290002A461BB1D3691432002BFBD10B6A002B59
:10B2A00000F00882996839B99A4218D0196899B1A2
:10B2B0005B6899680029F7D01433F3E7B82A0020B7
:10B2C00000ED00E010E000E0B03B0020B0330020D3
:10B2D000404B4C0054C50508AF4AC3E90025C0B235
:10B2E00080F31188E1690B6A002BFCD18C220120CC
:10B2F000CDE908330DF10E080DF10F0A05938DF815
:10B300001C300D93109312938DF80E200023002211
:10B31000CDE90E23CDF8108006900B908DF830000B
:10B320008DF84400CDF828A0EFF31180102383F3AB
:10B330001288E3691B6A002B00F07781069B2A467E
:10B340001BB1D3691432002BFBD10B6A002B00F028
:10B35000B181996839B993420AD0196829B15B68FB
:10B3600099680029F7D01433F3E78B4AC3E9002525
:10B37000C0B280F31188E269136A002BFCD19DF8FA
:10B380000F301B2B40F08781636A012286F84D2D18
:10B390000BB12322DA80DFF80092402248460A21CE
:10B3A0003EF03AFC8A21002301228DF80E10002085
:10B3B0000021CDE90E01CDE90833E169CDF8108017
:10B3C000CDF828A005938DF81C300D93109312939F
:10B3D00006920B928DF830208DF84420EFF3118007
:10B3E000102383F31288E3691B6A002B00F0258188
:10B3F000069B2A461BB1D3691432002BFBD10B6A82
:10B40000002B00F05481996839B9934209D019682A
:10B4100029B15B6899680029F7D01433F3E7C3E9D1
:10B420000095C0B280F31188E269136A002BFCD149
:10B430009DF80F20217EC2F3801284F85C21002940
:10B4400000F0CA80022900F0AD80D6F8803A534956
:10B45000B1EB930F80F01981B1EBD30F80F0FF8037
:10B46000B1EB131F80F00081B1EB531F80F001811D
:10B47000B1EB931F80F00281B1EBD31F80F0088104
:10B48000B1EB132F34BF4FF4807C4FF0800C96F853
:10B49000C816A4F85EC118290ED14149A6F8CCB649
:10B4A0005B08B3FBFCF3A1FB03135B0BA6F8CE26F2
:10B4B000A6F8D0C6A6F8D2363748A4F820C0022293
:10B4C00000213EF0A9FBC82038F092FBE0694FF064
:10B4D000800B0026002700230122CDE90E67CDE96D
:10B4E00008338DF80EB0CDF81080CDF828A0059364
:10B4F0008DF81C300D931093129306920B928DF8D9
:10B5000030208DF84420EFF31181102383F312884B
:10B51000E3691B6A002B36D0069B2A461BB1D36910
:10B520001432002BFBD1006A002800F0BD80836834
:10B530003BB9824209D003682BB140688368002B75
:10B54000F7D01430F3E7C0E90095C9B281F3118850
:10B55000E069036A002BFCD19DF80F3013F0020361
:10B56000B9D1019841788278007884F86001C1F1FE
:10B570002001C2F11002184684F8611184F862219A
:10B5800015B0BDE8F08F0562C9B281F31188024899
:10B590004DF0FEFADCE700BFCC3B0020809698001F
:10B5A0005917B7D1D6F8803A4448B0EB930F79D207
:10B5B000B0EBD30F53D2B0EB131F55D2B0EB531FE8
:10B5C00057D2B0EB931F59D2B0EBD31F34BF4FF01B
:10B5D000800C4FF0400C5AE7D6F8803A3849B1EB6E
:10B5E000930F52D2B1EBD30F39D2B1EB131F3BD231
:10B5F000B1EB531F3DD2B1EB931F3FD2B1EBD31F41
:10B6000046D2B1EB132F34BF4FF4807C4FF0800C47
:10B610003DE700206062F1E504ADC0B20D6280F349
:10B62000118828484DF0B4FA5CE60D62C0B280F390
:10B63000118824484DF0ACFA9DE60D62C0B280F34B
:10B64000118848464DF0A4FAEEE691F8C1302B443B
:10B6500081F8C13066E50222F9E50422F7E54FF0F2
:10B66000040C14E70822F2E54FF0080C0FE7102253
:10B67000EDE54FF0100C0AE72022E8E54FF0200C32
:10B6800005E74022E3E58022E1E54FF0020CFEE60B
:10B690004FF0400CFBE6606A202137F079FE4FF056
:10B6A000FF3066E58C46F2E6C0F80090FFDEC3F896
:10B6B0000090FFDE034A1A60FFDE00BF002D31015B
:10B6C000404B4C00CC3B002038B50C4C0546A11C2F
:10B6D000D52242F08FF82B68A342C5E90043A3EBC3
:10B6E00004000AD004F14002611C2960237802F8AA
:10B6F000013BD5E90041A142F6D138BD143D0020FF
:10B70000F0B40D6800240CE0BCF1050F18D8A0F1CE
:10B7100037030A2B14D104EB840415F8010B03EB57
:10B720004404A0F13003DEB2092EA0F16107A0F1BC
:10B73000410CF0D9052FE7D8A0F157030A2BEAD026
:10B740000D601460F0BC704710B5204B84B0C82465
:10B7500003F5D27103F265122128CDE9022183F8A5
:10B76000644118D00CD802281ED0082825D102A880
:10B77000019009F06BFF0198FFF7A6FF04B010BD20
:10B7800029281AD102A8019009F016FE0198FFF7A6
:10B790009BFF04B010BD02A8019009F057FE01986C
:10B7A000FFF792FF04B010BD02A8019009F09EFFC0
:10B7B0000198FFF789FF04B010BD02A8019009F0BD
:10B7C000BBFE0198FFF780FF04B010BDB03B002026
:10B7D000014488420ED010B40346074C074813F8C2
:10B7E000012B04FB00F0994280EA0200F7D15DF8DA
:10B7F000044B70470148704793010001C59D1C81AF
:10B80000094B93F85637042B08D9053B032B08D86E
:10B8100001231A4600B1037010467047002301222D
:10B82000F8E700231A46F5E7B82A00209FED727A60
:10B8300007EE901A20EE070AF8EE677A27EE800AE4
:10B84000FDEEC07A17EE903A2033402B00F2C48010
:10B85000DFED6A7AB4EEE70AF1EE10FAF0EE407A24
